{
  "transactions": [
    {
      "hash": "0xc7965750a241d3c7cb26a54cec524c742818d93214fce13398a5170efcc7dc9a",
      "transactionType": "CREATE",
      "contractName": "WithdrawalFacet",
      "contractAddress": "0xc9e85f3df05880a552bba5d5b83b31cc42411568",
      "function": null,
      "arguments": null,
      "transaction": {
        "from": "0xbfb3fd95879d2819256fee1ae754d14c9641d10a",
        "gas": "0x5ec97",
        "value": "0x0",
        "input": "0x608060405234601c57600e6020565b61047161002b823961047190f35b6026565b60405190565b5f80fdfe60806040526004361015610013575b610079565b61001d5f3561002c565b63e086e5ec0361000e57610050565b60e01c90565b60405190565b5f80fd5b5f91031261004657565b610038565b5f0190565b61005b36600461003c565b610063610210565b61006b610032565b806100758161004b565b0390f35b5f80fd5b90565b60018060a01b031690565b90565b6100a261009d6100a79261007d565b61008b565b610080565b90565b6100b39061008e565b90565b6100bf90610080565b90565b6100d66100d16100db92610080565b61008b565b610080565b90565b6100e7906100c2565b90565b6100f3906100de565b90565b905090565b6101065f80926100f6565b0190565b610113906100fb565b90565b601f801991011690565b634e487b7160e01b5f52604160045260245ffd5b9061013e90610116565b810190811067ffffffffffffffff82111761015857604052565b610120565b90610170610169610032565b9283610134565b565b67ffffffffffffffff81116101905761018c602091610116565b0190565b610120565b906101a76101a283610172565b61015d565b918252565b606090565b3d5f146101cc576101c13d610195565b903d5f602084013e5b565b6101d46101ac565b906101ca565b151590565b6101e8906100de565b90565b90565b6101f7906101eb565b9052565b919061020e905f602085019401906101ee565b565b6102186103dc565b338061023461022e6102295f6100aa565b6100b6565b916100b6565b146102de5761026f5f8083610248306100ea565b31610251610032565b908161025c8161010a565b03925af16102686101b1565b50156101da565b6102c25761027c306100ea565b31906102bd6102ab7f94b2de810873337ed265c5f8cf98c9cffefa06b8607f9a2f1fbaebdfbcfbef1c926101df565b926102b4610032565b918291826101fb565b0390a2565b5f6327fcd9d160e01b8152806102da6004820161004b565b0390fd5b5f636edaef2f60e11b8152806102f66004820161004b565b0390fd5b5f1c90565b60018060a01b031690565b61031661031b916102fa565b6102ff565b90565b610328905461030a565b90565b60209181520190565b60207f6572000000000000000000000000000000000000000000000000000000000000917f4c69624469616d6f6e643a204d75737420626520636f6e7472616374206f776e5f8201520152565b61038e602260409261032b565b61039781610334565b0190565b6103b09060208101905f818303910152610381565b90565b156103ba57565b6103c2610032565b62461bcd60e51b8152806103d86004820161039b565b0390fd5b61040a336104046103fe6103f960036103f3610430565b0161031e565b6100b6565b916100b6565b146103b3565b565b7fc8fcad8db84d3cc18b4c41d551ea0ee66dd599cde068d998e57d5e09332c131c90565b61043861040c565b9056fea2646970667358221220d168f552f7fefba695316c63d583f6e16e9b21a25dd4796c5012af311b93882a64736f6c634300081e0033",
        "nonce": "0x1d",
        "chainId": "0xaa36a7"
      },
      "additionalContracts": [],
      "isFixedGasLimit": false
    },
    {
      "hash": "0x40721380f63ca4ae9567945d2f1ca5db8aa3ad1cb4a607485b38c1903b3766fd",
      "transactionType": "CALL",
      "contractName": null,
      "contractAddress": "0xe2462837fbd9f2392b2e10307f3cfd9475eb7873",
      "function": "diamondCut((address,uint8,bytes4[])[],address,bytes)",
      "arguments": [
        "[(0xc9e85f3Df05880A552bBA5D5b83b31cc42411568, 0, [0xe086e5ec])]",
        "0x0000000000000000000000000000000000000000",
        "0x"
      ],
      "transaction": {
        "from": "0xbfb3fd95879d2819256fee1ae754d14c9641d10a",
        "to": "0xe2462837fbd9f2392b2e10307f3cfd9475eb7873",
        "gas": "0x36d63",
        "value": "0x0",
        "input": "0x1f931c1c00000000000000000000000000000000000000000000000000000000000000600000000000000000000000000000000000000000000000000000000000000000000000000000000000000000000000000000000000000000000000000000014000000000000000000000000000000000000000000000000000000000000000010000000000000000000000000000000000000000000000000000000000000020000000000000000000000000c9e85f3df05880a552bba5d5b83b31cc42411568000000000000000000000000000000000000000000000000000000000000000000000000000000000000000000000000000000000000000000000000000000600000000000000000000000000000000000000000000000000000000000000001e086e5ec000000000000000000000000000000000000000000000000000000000000000000000000000000000000000000000000000000000000000000000000",
        "nonce": "0x1e",
        "chainId": "0xaa36a7"
      },
      "additionalContracts": [],
      "isFixedGasLimit": false
    }
  ],
  "receipts": [
    {
      "status": "0x1",
      "cumulativeGasUsed": "0x9f3da9",
      "logs": [],
      "logsBloom": "0x00000000000000000000000000000000000000000000000000000000000000000000000000000000000000000000000000000000000000000000000000000000000000000000000000000000000000000000000000000000000000000000000000000000000000000000000000000000000000000000000000000000000000000000000000000000000000000000000000000000000000000000000000000000000000000000000000000000000000000000000000000000000000000000000000000000000000000000000000000000000000000000000000000000000000000000000000000000000000000000000000000000000000000000000000000000",
      "type": "0x2",
      "transactionHash": "0xc7965750a241d3c7cb26a54cec524c742818d93214fce13398a5170efcc7dc9a",
      "transactionIndex": "0x3e",
      "blockHash": "0x3957a567ce39266be3fa698f48f1ac442d5e95bcfb2667cef6edff09158fe5fb",
      "blockNumber": "0x8e2606",
      "gasUsed": "0x48e9c",
      "effectiveGasPrice": "0xf424e",
      "from": "0xbfb3fd95879d2819256fee1ae754d14c9641d10a",
      "to": null,
      "contractAddress": "0xc9e85f3df05880a552bba5d5b83b31cc42411568"
    },
    {
      "status": "0x1",
      "cumulativeGasUsed": "0xa1b8e0",
      "logs": [
        {
          "address": "0xe2462837fbd9f2392b2e10307f3cfd9475eb7873",
          "topics": [
            "0x8faa70878671ccd212d20771b795c50af8fd3ff6cf27f4bde57e5d4de0aeb673"
          ],
          "data": "0x00000000000000000000000000000000000000000000000000000000000000600000000000000000000000000000000000000000000000000000000000000000000000000000000000000000000000000000000000000000000000000000014000000000000000000000000000000000000000000000000000000000000000010000000000000000000000000000000000000000000000000000000000000020000000000000000000000000c9e85f3df05880a552bba5d5b83b31cc42411568000000000000000000000000000000000000000000000000000000000000000000000000000000000000000000000000000000000000000000000000000000600000000000000000000000000000000000000000000000000000000000000001e086e5ec000000000000000000000000000000000000000000000000000000000000000000000000000000000000000000000000000000000000000000000000",
          "blockHash": "0x3957a567ce39266be3fa698f48f1ac442d5e95bcfb2667cef6edff09158fe5fb",
          "blockNumber": "0x8e2606",
          "blockTimestamp": "0x68dc6a8c",
          "transactionHash": "0x40721380f63ca4ae9567945d2f1ca5db8aa3ad1cb4a607485b38c1903b3766fd",
          "transactionIndex": "0x3f",
          "logIndex": "0x8f",
          "removed": false
        }
      ],
      "logsBloom": "0x00000000000000000000000000000020000000000000000000000000000000000000000000000000000010000000000000000000000000000000000000000000000000000000000000000000000000000000000001000000000800000000000000000000000000000000000000000000000000000000000000000000000000000020000000000000000000000000000000000000000000000001000000000000000000000000000000000000000000000000000000000000000000000000000000000000000000000000000000000000000000000000000000000000000000000000000000000000000000000000000000000000000000000000000000000000",
      "type": "0x2",
      "transactionHash": "0x40721380f63ca4ae9567945d2f1ca5db8aa3ad1cb4a607485b38c1903b3766fd",
      "transactionIndex": "0x3f",
      "blockHash": "0x3957a567ce39266be3fa698f48f1ac442d5e95bcfb2667cef6edff09158fe5fb",
      "blockNumber": "0x8e2606",
      "gasUsed": "0x27b37",
      "effectiveGasPrice": "0xf424e",
      "from": "0xbfb3fd95879d2819256fee1ae754d14c9641d10a",
      "to": "0xe2462837fbd9f2392b2e10307f3cfd9475eb7873",
      "contractAddress": null
    }
  ],
  "libraries": [],
  "pending": [],
  "returns": {},
  "timestamp": 1759275706,
  "chain": 11155111,
  "commit": "ef0e223"
}