{
  "transactions": [
    {
      "hash": "0x9b76f03013118f4271be89082bfb531e4dcc6863f705bc59f708ccc06ea6c578",
      "transactionType": "CREATE",
      "contractName": "ERC20MintFacet",
      "contractAddress": "0x90302cc63ac4ae5b0178c9025bff49ca94550c7f",
      "function": null,
      "arguments": null,
      "transaction": {
        "from": "0xbfb3fd95879d2819256fee1ae754d14c9641d10a",
        "gas": "0x6ee0c",
        "value": "0x0",
        "input": "0x608060405234601c57600e6020565b61055c61002b823961055c90f35b6026565b60405190565b5f80fdfe60806040526004361015610013575b610106565b61001d5f3561002c565b6340c10f190361000e576100d2565b60e01c90565b60405190565b5f80fd5b5f80fd5b60018060a01b031690565b61005490610040565b90565b6100608161004b565b0361006757565b5f80fd5b9050359061007882610057565b565b90565b6100868161007a565b0361008d57565b5f80fd5b9050359061009e8261007d565b565b91906040838203126100c857806100bc6100c5925f860161006b565b93602001610091565b90565b61003c565b5f0190565b34610101576100eb6100e53660046100a0565b906102eb565b6100f3610032565b806100fd816100cd565b0390f35b610038565b5f80fd5b90565b90565b61012461011f6101299261010a565b61010d565b610040565b90565b61013590610110565b90565b60209181520190565b5f7f45524332303a206d696e7420746f207a65726f00000000000000000000000000910152565b6101756013602092610138565b61017e81610141565b0190565b6101979060208101905f818303910152610168565b90565b156101a157565b6101a9610032565b62461bcd60e51b8152806101bf60048201610182565b0390fd5b5f1c90565b90565b6101d76101dc916101c3565b6101c8565b90565b6101e990546101cb565b90565b634e487b7160e01b5f52601160045260245ffd5b61020f6102159193929361007a565b9261007a565b820180921161022057565b6101ec565b5f1b90565b906102365f1991610225565b9181191691161790565b61025461024f6102599261007a565b61010d565b61007a565b90565b90565b9061027461026f61027b92610240565b61025c565b825461022a565b9055565b61029361028e61029892610040565b61010d565b610040565b90565b6102a49061027f565b90565b6102b09061029b565b90565b906102bd906102a7565b5f5260205260405f2090565b6102d29061007a565b9052565b91906102e9905f602085019401906102c9565b565b906102f4610498565b6103198261031261030c6103075f61012c565b61004b565b9161004b565b141561019a565b61036b6103246104ec565b6103448361033e6003840191610339836101df565b610200565b9061025f565b610365610356600485930186906102b3565b91610360836101df565b610200565b9061025f565b6103745f61012c565b9190916103bf6103ad6103a77fddf252ad1be2c89b69c2b068fc378daa952ba7f163c4a11628f55a4df523b3ef936102a7565b936102a7565b936103b6610032565b918291826102d6565b0390a3565b60018060a01b031690565b6103db6103e0916101c3565b6103c4565b90565b6103ed90546103cf565b90565b60207f6572000000000000000000000000000000000000000000000000000000000000917f4c69624469616d6f6e643a204d75737420626520636f6e7472616374206f776e5f8201520152565b61044a6022604092610138565b610453816103f0565b0190565b61046c9060208101905f81830391015261043d565b90565b1561047657565b61047e610032565b62461bcd60e51b81528061049460048201610457565b0390fd5b6104c6336104c06104ba6104b560036104af61051b565b016103e3565b61004b565b9161004b565b1461046f565b565b7f47bb324945cb125366ea608c98b801618d914990c8a6856b45f489b0ef985fdc90565b6104f46104c8565b90565b7fc8fcad8db84d3cc18b4c41d551ea0ee66dd599cde068d998e57d5e09332c131c90565b6105236104f7565b9056fea2646970667358221220efee21b4bf76ce3cd0b9c567aef43621c4e47ac412b20623b74207f97ad31aec64736f6c634300081e0033",
        "nonce": "0x13",
        "chainId": "0xaa36a7"
      },
      "additionalContracts": [],
      "isFixedGasLimit": false
    },
    {
      "hash": "0xc228777ddae1c70038c4c2e377688e13822f817eac6ecb9cbf59a88ffc907d8a",
      "transactionType": "CALL",
      "contractName": null,
      "contractAddress": "0xe2462837fbd9f2392b2e10307f3cfd9475eb7873",
      "function": "diamondCut((address,uint8,bytes4[])[],address,bytes)",
      "arguments": [
        "[(0x90302cC63Ac4aE5B0178C9025BFF49ca94550C7F, 0, [0x40c10f19])]",
        "0x0000000000000000000000000000000000000000",
        "0x"
      ],
      "transaction": {
        "from": "0xbfb3fd95879d2819256fee1ae754d14c9641d10a",
        "to": "0xe2462837fbd9f2392b2e10307f3cfd9475eb7873",
        "gas": "0x36d63",
        "value": "0x0",
        "input": "0x1f931c1c0000000000000000000000000000000000000000000000000000000000000060000000000000000000000000000000000000000000000000000000000000000000000000000000000000000000000000000000000000000000000000000001400000000000000000000000000000000000000000000000000000000000000001000000000000000000000000000000000000000000000000000000000000002000000000000000000000000090302cc63ac4ae5b0178c9025bff49ca94550c7f00000000000000000000000000000000000000000000000000000000000000000000000000000000000000000000000000000000000000000000000000000060000000000000000000000000000000000000000000000000000000000000000140c10f19000000000000000000000000000000000000000000000000000000000000000000000000000000000000000000000000000000000000000000000000",
        "nonce": "0x14",
        "chainId": "0xaa36a7"
      },
      "additionalContracts": [],
      "isFixedGasLimit": false
    }
  ],
  "receipts": [
    {
      "status": "0x1",
      "cumulativeGasUsed": "0x2cd4eeb",
      "logs": [],
      "logsBloom": "0x00000000000000000000000000000000000000000000000000000000000000000000000000000000000000000000000000000000000000000000000000000000000000000000000000000000000000000000000000000000000000000000000000000000000000000000000000000000000000000000000000000000000000000000000000000000000000000000000000000000000000000000000000000000000000000000000000000000000000000000000000000000000000000000000000000000000000000000000000000000000000000000000000000000000000000000000000000000000000000000000000000000000000000000000000000000",
      "type": "0x2",
      "transactionHash": "0x9b76f03013118f4271be89082bfb531e4dcc6863f705bc59f708ccc06ea6c578",
      "transactionIndex": "0x66",
      "blockHash": "0x4f2948e58682dcb3a95e401cde7e22a3845b05685edab1689406b865a82b0400",
      "blockNumber": "0x8e19ce",
      "gasUsed": "0x554a7",
      "effectiveGasPrice": "0xf42c8",
      "from": "0xbfb3fd95879d2819256fee1ae754d14c9641d10a",
      "to": null,
      "contractAddress": "0x90302cc63ac4ae5b0178c9025bff49ca94550c7f"
    },
    {
      "status": "0x1",
      "cumulativeGasUsed": "0x2cfca22",
      "logs": [
        {
          "address": "0xe2462837fbd9f2392b2e10307f3cfd9475eb7873",
          "topics": [
            "0x8faa70878671ccd212d20771b795c50af8fd3ff6cf27f4bde57e5d4de0aeb673"
          ],
          "data": "0x0000000000000000000000000000000000000000000000000000000000000060000000000000000000000000000000000000000000000000000000000000000000000000000000000000000000000000000000000000000000000000000001400000000000000000000000000000000000000000000000000000000000000001000000000000000000000000000000000000000000000000000000000000002000000000000000000000000090302cc63ac4ae5b0178c9025bff49ca94550c7f00000000000000000000000000000000000000000000000000000000000000000000000000000000000000000000000000000000000000000000000000000060000000000000000000000000000000000000000000000000000000000000000140c10f19000000000000000000000000000000000000000000000000000000000000000000000000000000000000000000000000000000000000000000000000",
          "blockHash": "0x4f2948e58682dcb3a95e401cde7e22a3845b05685edab1689406b865a82b0400",
          "blockNumber": "0x8e19ce",
          "blockTimestamp": "0x68dbd5a0",
          "transactionHash": "0xc228777ddae1c70038c4c2e377688e13822f817eac6ecb9cbf59a88ffc907d8a",
          "transactionIndex": "0x67",
          "logIndex": "0x88",
          "removed": false
        }
      ],
      "logsBloom": "0x00000000000000000000000000000020000000000000000000000000000000000000000000000000000010000000000000000000000000000000000000000000000000000000000000000000000000000000000001000000000800000000000000000000000000000000000000000000000000000000000000000000000000000020000000000000000000000000000000000000000000000001000000000000000000000000000000000000000000000000000000000000000000000000000000000000000000000000000000000000000000000000000000000000000000000000000000000000000000000000000000000000000000000000000000000000",
      "type": "0x2",
      "transactionHash": "0xc228777ddae1c70038c4c2e377688e13822f817eac6ecb9cbf59a88ffc907d8a",
      "transactionIndex": "0x67",
      "blockHash": "0x4f2948e58682dcb3a95e401cde7e22a3845b05685edab1689406b865a82b0400",
      "blockNumber": "0x8e19ce",
      "gasUsed": "0x27b37",
      "effectiveGasPrice": "0xf42c8",
      "from": "0xbfb3fd95879d2819256fee1ae754d14c9641d10a",
      "to": "0xe2462837fbd9f2392b2e10307f3cfd9475eb7873",
      "contractAddress": null
    }
  ],
  "libraries": [],
  "pending": [],
  "returns": {},
  "timestamp": 1759237566,
  "chain": 11155111,
  "commit": "abfe245"
}