{
  "transactions": [
    {
      "hash": "0xad2cb40bab4ff830e9b8240029c248149b12f38505df8ccdebbd7947eb9c544f",
      "transactionType": "CREATE",
      "contractName": "ERC20MintFacet",
      "contractAddress": "0x5dbefff10c70aae01b7f54f2d6cbebbce1b0eb5f",
      "function": null,
      "arguments": null,
      "transaction": {
        "from": "0xbfb3fd95879d2819256fee1ae754d14c9641d10a",
        "gas": "0x6e5cf",
        "value": "0x0",
        "input": "0x608060405234601c57600e6020565b61055361002b823961055390f35b6026565b60405190565b5f80fdfe60806040526004361015610013575b610167565b61001d5f3561003c565b806340c10f191461003757636db451850361000e57610134565b6100e2565b60e01c90565b60405190565b5f80fd5b5f80fd5b60018060a01b031690565b61006490610050565b90565b6100708161005b565b0361007757565b5f80fd5b9050359061008882610067565b565b90565b6100968161008a565b0361009d57565b5f80fd5b905035906100ae8261008d565b565b91906040838203126100d857806100cc6100d5925f860161007b565b936020016100a1565b90565b61004c565b5f0190565b34610111576100fb6100f53660046100b0565b9061034c565b610103610042565b8061010d816100dd565b0390f35b610048565b9060208282031261012f5761012c915f016100a1565b90565b61004c565b346101625761014c610147366004610116565b61041d565b610154610042565b8061015e816100dd565b0390f35b610048565b5f80fd5b90565b90565b61018561018061018a9261016b565b61016e565b610050565b90565b61019690610171565b90565b60209181520190565b5f7f45524332303a206d696e7420746f207a65726f00000000000000000000000000910152565b6101d66013602092610199565b6101df816101a2565b0190565b6101f89060208101905f8183039101526101c9565b90565b1561020257565b61020a610042565b62461bcd60e51b815280610220600482016101e3565b0390fd5b5f1c90565b90565b61023861023d91610224565b610229565b90565b61024a905461022c565b90565b634e487b7160e01b5f52601160045260245ffd5b6102706102769193929361008a565b9261008a565b820180921161028157565b61024d565b5f1b90565b906102975f1991610286565b9181191691161790565b6102b56102b06102ba9261008a565b61016e565b61008a565b90565b90565b906102d56102d06102dc926102a1565b6102bd565b825461028b565b9055565b6102f46102ef6102f992610050565b61016e565b610050565b90565b610305906102e0565b90565b610311906102fc565b90565b9061031e90610308565b5f5260205260405f2090565b6103339061008a565b9052565b919061034a905f6020850194019061032a565b565b906103728261036b6103656103605f61018d565b61005b565b9161005b565b14156101fb565b6103c461037d610512565b61039d83610397600384019161039283610240565b610261565b906102c0565b6103be6103af60048593018690610314565b916103b983610240565b610261565b906102c0565b6103cd5f61018d565b9190916104186104066104007fddf252ad1be2c89b69c2b068fc378daa952ba7f163c4a11628f55a4df523b3ef93610308565b93610308565b9361040f610042565b91829182610337565b0390a3565b6104423361043b6104356104305f61018d565b61005b565b9161005b565b14156101fb565b61049461044d610512565b61046d83610467600384019161046283610240565b610261565b906102c0565b61048e61047f60048593013390610314565b9161048983610240565b610261565b906102c0565b61049d5f61018d565b903390916104e96104d76104d17fddf252ad1be2c89b69c2b068fc378daa952ba7f163c4a11628f55a4df523b3ef93610308565b93610308565b936104e0610042565b91829182610337565b0390a3565b7f47bb324945cb125366ea608c98b801618d914990c8a6856b45f489b0ef985fdc90565b61051a6104ee565b9056fea26469706673582212204078f4aa9dd7b5b43998ffdc7a745eceb4d255bfb9b67ccb68fe28f877276c9b64736f6c634300081e0033",
        "nonce": "0x19",
        "chainId": "0xaa36a7"
      },
      "additionalContracts": [],
      "isFixedGasLimit": false
    },
    {
      "hash": "0x138f26c34ebb0125527dcd802386475cf8f6ffee07ae83357e2800693a04cd00",
      "transactionType": "CALL",
      "contractName": null,
      "contractAddress": "0xe2462837fbd9f2392b2e10307f3cfd9475eb7873",
      "function": "diamondCut((address,uint8,bytes4[])[],address,bytes)",
      "arguments": [
        "[(0x5dBefff10c70AaE01b7F54f2D6cbebBCe1B0eb5f, 1, [0x40c10f19]), (0x5dBefff10c70AaE01b7F54f2D6cbebBCe1B0eb5f, 0, [0x6db45185])]",
        "0x0000000000000000000000000000000000000000",
        "0x"
      ],
      "transaction": {
        "from": "0xbfb3fd95879d2819256fee1ae754d14c9641d10a",
        "to": "0xe2462837fbd9f2392b2e10307f3cfd9475eb7873",
        "gas": "0x39c99",
        "value": "0x0",
        "input": "0x1f931c1c0000000000000000000000000000000000000000000000000000000000000060000000000000000000000000000000000000000000000000000000000000000000000000000000000000000000000000000000000000000000000000000002000000000000000000000000000000000000000000000000000000000000000002000000000000000000000000000000000000000000000000000000000000004000000000000000000000000000000000000000000000000000000000000000e00000000000000000000000005dbefff10c70aae01b7f54f2d6cbebbce1b0eb5f00000000000000000000000000000000000000000000000000000000000000010000000000000000000000000000000000000000000000000000000000000060000000000000000000000000000000000000000000000000000000000000000140c10f19000000000000000000000000000000000000000000000000000000000000000000000000000000005dbefff10c70aae01b7f54f2d6cbebbce1b0eb5f0000000000000000000000000000000000000000000000000000000000000000000000000000000000000000000000000000000000000000000000000000006000000000000000000000000000000000000000000000000000000000000000016db45185000000000000000000000000000000000000000000000000000000000000000000000000000000000000000000000000000000000000000000000000",
        "nonce": "0x1a",
        "chainId": "0xaa36a7"
      },
      "additionalContracts": [],
      "isFixedGasLimit": false
    }
  ],
  "receipts": [
    {
      "status": "0x1",
      "cumulativeGasUsed": "0x71cfeb",
      "logs": [],
      "logsBloom": "0x00000000000000000000000000000000000000000000000000000000000000000000000000000000000000000000000000000000000000000000000000000000000000000000000000000000000000000000000000000000000000000000000000000000000000000000000000000000000000000000000000000000000000000000000000000000000000000000000000000000000000000000000000000000000000000000000000000000000000000000000000000000000000000000000000000000000000000000000000000000000000000000000000000000000000000000000000000000000000000000000000000000000000000000000000000000",
      "type": "0x2",
      "transactionHash": "0xad2cb40bab4ff830e9b8240029c248149b12f38505df8ccdebbd7947eb9c544f",
      "transactionIndex": "0x29",
      "blockHash": "0xbbd3510edc4325fd62b1945cf6546f83784082dd737e76b4e766ea0d8398936e",
      "blockNumber": "0x8e1e82",
      "gasUsed": "0x54e51",
      "effectiveGasPrice": "0x13eb3e9",
      "from": "0xbfb3fd95879d2819256fee1ae754d14c9641d10a",
      "to": null,
      "contractAddress": "0x5dbefff10c70aae01b7f54f2d6cbebbce1b0eb5f"
    },
    {
      "status": "0x1",
      "cumulativeGasUsed": "0x746d50",
      "logs": [
        {
          "address": "0xe2462837fbd9f2392b2e10307f3cfd9475eb7873",
          "topics": [
            "0x8faa70878671ccd212d20771b795c50af8fd3ff6cf27f4bde57e5d4de0aeb673"
          ],
          "data": "0x0000000000000000000000000000000000000000000000000000000000000060000000000000000000000000000000000000000000000000000000000000000000000000000000000000000000000000000000000000000000000000000002000000000000000000000000000000000000000000000000000000000000000002000000000000000000000000000000000000000000000000000000000000004000000000000000000000000000000000000000000000000000000000000000e00000000000000000000000005dbefff10c70aae01b7f54f2d6cbebbce1b0eb5f00000000000000000000000000000000000000000000000000000000000000010000000000000000000000000000000000000000000000000000000000000060000000000000000000000000000000000000000000000000000000000000000140c10f19000000000000000000000000000000000000000000000000000000000000000000000000000000005dbefff10c70aae01b7f54f2d6cbebbce1b0eb5f0000000000000000000000000000000000000000000000000000000000000000000000000000000000000000000000000000000000000000000000000000006000000000000000000000000000000000000000000000000000000000000000016db45185000000000000000000000000000000000000000000000000000000000000000000000000000000000000000000000000000000000000000000000000",
          "blockHash": "0xbbd3510edc4325fd62b1945cf6546f83784082dd737e76b4e766ea0d8398936e",
          "blockNumber": "0x8e1e82",
          "blockTimestamp": "0x68dc0edc",
          "transactionHash": "0x138f26c34ebb0125527dcd802386475cf8f6ffee07ae83357e2800693a04cd00",
          "transactionIndex": "0x2a",
          "logIndex": "0x4e",
          "removed": false
        }
      ],
      "logsBloom": "0x00000000000000000000000000000020000000000000000000000000000000000000000000000000000010000000000000000000000000000000000000000000000000000000000000000000000000000000000001000000000800000000000000000000000000000000000000000000000000000000000000000000000000000020000000000000000000000000000000000000000000000001000000000000000000000000000000000000000000000000000000000000000000000000000000000000000000000000000000000000000000000000000000000000000000000000000000000000000000000000000000000000000000000000000000000000",
      "type": "0x2",
      "transactionHash": "0x138f26c34ebb0125527dcd802386475cf8f6ffee07ae83357e2800693a04cd00",
      "transactionIndex": "0x2a",
      "blockHash": "0xbbd3510edc4325fd62b1945cf6546f83784082dd737e76b4e766ea0d8398936e",
      "blockNumber": "0x8e1e82",
      "gasUsed": "0x29d65",
      "effectiveGasPrice": "0x13eb3e9",
      "from": "0xbfb3fd95879d2819256fee1ae754d14c9641d10a",
      "to": "0xe2462837fbd9f2392b2e10307f3cfd9475eb7873",
      "contractAddress": null
    }
  ],
  "libraries": [],
  "pending": [],
  "returns": {},
  "timestamp": 1759252215,
  "chain": 11155111,
  "commit": "ef0339b"
}