{
  "transactions": [
    {
      "hash": "0x2ab6ceeade362b11ed9c9308c6232526771c3cc403be02811cfadba5543c457c",
      "transactionType": "CREATE",
      "contractName": "ERC20MintFacet",
      "contractAddress": "0xeec743c92db6e741c146de4764da480c0f79d176",
      "function": null,
      "arguments": null,
      "transaction": {
        "from": "0xbfb3fd95879d2819256fee1ae754d14c9641d10a",
        "gas": "0x59628",
        "value": "0x0",
        "input": "0x608060405234601c57600e6020565b61042161002b823961042190f35b6026565b60405190565b5f80fdfe60806040526004361015610013575b610106565b61001d5f3561002c565b6340c10f190361000e576100d2565b60e01c90565b60405190565b5f80fd5b5f80fd5b60018060a01b031690565b61005490610040565b90565b6100608161004b565b0361006757565b5f80fd5b9050359061007882610057565b565b90565b6100868161007a565b0361008d57565b5f80fd5b9050359061009e8261007d565b565b91906040838203126100c857806100bc6100c5925f860161006b565b93602001610091565b90565b61003c565b5f0190565b34610101576100eb6100e53660046100a0565b906102eb565b6100f3610032565b806100fd816100cd565b0390f35b610038565b5f80fd5b90565b90565b61012461011f6101299261010a565b61010d565b610040565b90565b61013590610110565b90565b60209181520190565b5f7f45524332303a206d696e7420746f207a65726f00000000000000000000000000910152565b6101756013602092610138565b61017e81610141565b0190565b6101979060208101905f818303910152610168565b90565b156101a157565b6101a9610032565b62461bcd60e51b8152806101bf60048201610182565b0390fd5b5f1c90565b90565b6101d76101dc916101c3565b6101c8565b90565b6101e990546101cb565b90565b634e487b7160e01b5f52601160045260245ffd5b61020f6102159193929361007a565b9261007a565b820180921161022057565b6101ec565b5f1b90565b906102365f1991610225565b9181191691161790565b61025461024f6102599261007a565b61010d565b61007a565b90565b90565b9061027461026f61027b92610240565b61025c565b825461022a565b9055565b61029361028e61029892610040565b61010d565b610040565b90565b6102a49061027f565b90565b6102b09061029b565b90565b906102bd906102a7565b5f5260205260405f2090565b6102d29061007a565b9052565b91906102e9905f602085019401906102c9565b565b906103118261030a6103046102ff5f61012c565b61004b565b9161004b565b141561019a565b61036361031c6103e0565b61033c836103366003840191610331836101df565b610200565b9061025f565b61035d61034e600485930186906102b3565b91610358836101df565b610200565b9061025f565b61036c5f61012c565b9190916103b76103a561039f7fddf252ad1be2c89b69c2b068fc378daa952ba7f163c4a11628f55a4df523b3ef936102a7565b936102a7565b936103ae610032565b918291826102d6565b0390a3565b7f47bb324945cb125366ea608c98b801618d914990c8a6856b45f489b0ef985fdc90565b6103e86103bc565b9056fea26469706673582212205a6952d89cf06b15a61eefccf40e6fb8d88acc05a6baa528ee5bef72b549128e64736f6c634300081e0033",
        "nonce": "0x17",
        "chainId": "0xaa36a7"
      },
      "additionalContracts": [],
      "isFixedGasLimit": false
    },
    {
      "hash": "0x627d765668270c7de3844e0d904d7b24b6a6c411366b61bca4ea135c51d211a3",
      "transactionType": "CALL",
      "contractName": null,
      "contractAddress": "0xe2462837fbd9f2392b2e10307f3cfd9475eb7873",
      "function": "diamondCut((address,uint8,bytes4[])[],address,bytes)",
      "arguments": [
        "[(0xeEC743c92dB6e741C146DE4764da480C0F79d176, 1, [0x40c10f19])]",
        "0x0000000000000000000000000000000000000000",
        "0x"
      ],
      "transaction": {
        "from": "0xbfb3fd95879d2819256fee1ae754d14c9641d10a",
        "to": "0xe2462837fbd9f2392b2e10307f3cfd9475eb7873",
        "gas": "0x2f110",
        "value": "0x0",
        "input": "0x1f931c1c00000000000000000000000000000000000000000000000000000000000000600000000000000000000000000000000000000000000000000000000000000000000000000000000000000000000000000000000000000000000000000000014000000000000000000000000000000000000000000000000000000000000000010000000000000000000000000000000000000000000000000000000000000020000000000000000000000000eec743c92db6e741c146de4764da480c0f79d17600000000000000000000000000000000000000000000000000000000000000010000000000000000000000000000000000000000000000000000000000000060000000000000000000000000000000000000000000000000000000000000000140c10f19000000000000000000000000000000000000000000000000000000000000000000000000000000000000000000000000000000000000000000000000",
        "nonce": "0x18",
        "chainId": "0xaa36a7"
      },
      "additionalContracts": [],
      "isFixedGasLimit": false
    }
  ],
  "receipts": [
    {
      "status": "0x1",
      "cumulativeGasUsed": "0x7c0794",
      "logs": [],
      "logsBloom": "0x00000000000000000000000000000000000000000000000000000000000000000000000000000000000000000000000000000000000000000000000000000000000000000000000000000000000000000000000000000000000000000000000000000000000000000000000000000000000000000000000000000000000000000000000000000000000000000000000000000000000000000000000000000000000000000000000000000000000000000000000000000000000000000000000000000000000000000000000000000000000000000000000000000000000000000000000000000000000000000000000000000000000000000000000000000000",
      "type": "0x2",
      "transactionHash": "0x2ab6ceeade362b11ed9c9308c6232526771c3cc403be02811cfadba5543c457c",
      "transactionIndex": "0x2f",
      "blockHash": "0x681249cb248e2a0ee4805f2cca4839bd28a9f2454a758d51bfd6b3280754257b",
      "blockNumber": "0x8e1dbf",
      "gasUsed": "0x44c1f",
      "effectiveGasPrice": "0x147175a",
      "from": "0xbfb3fd95879d2819256fee1ae754d14c9641d10a",
      "to": null,
      "contractAddress": "0xeec743c92db6e741c146de4764da480c0f79d176"
    },
    {
      "status": "0x1",
      "cumulativeGasUsed": "0x7e28c9",
      "logs": [
        {
          "address": "0xe2462837fbd9f2392b2e10307f3cfd9475eb7873",
          "topics": [
            "0x8faa70878671ccd212d20771b795c50af8fd3ff6cf27f4bde57e5d4de0aeb673"
          ],
          "data": "0x00000000000000000000000000000000000000000000000000000000000000600000000000000000000000000000000000000000000000000000000000000000000000000000000000000000000000000000000000000000000000000000014000000000000000000000000000000000000000000000000000000000000000010000000000000000000000000000000000000000000000000000000000000020000000000000000000000000eec743c92db6e741c146de4764da480c0f79d17600000000000000000000000000000000000000000000000000000000000000010000000000000000000000000000000000000000000000000000000000000060000000000000000000000000000000000000000000000000000000000000000140c10f19000000000000000000000000000000000000000000000000000000000000000000000000000000000000000000000000000000000000000000000000",
          "blockHash": "0x681249cb248e2a0ee4805f2cca4839bd28a9f2454a758d51bfd6b3280754257b",
          "blockNumber": "0x8e1dbf",
          "blockTimestamp": "0x68dc054c",
          "transactionHash": "0x627d765668270c7de3844e0d904d7b24b6a6c411366b61bca4ea135c51d211a3",
          "transactionIndex": "0x30",
          "logIndex": "0x72",
          "removed": false
        }
      ],
      "logsBloom": "0x00000000000000000000000000000020000000000000000000000000000000000000000000000000000010000000000000000000000000000000000000000000000000000000000000000000000000000000000001000000000800000000000000000000000000000000000000000000000000000000000000000000000000000020000000000000000000000000000000000000000000000001000000000000000000000000000000000000000000000000000000000000000000000000000000000000000000000000000000000000000000000000000000000000000000000000000000000000000000000000000000000000000000000000000000000000",
      "type": "0x2",
      "transactionHash": "0x627d765668270c7de3844e0d904d7b24b6a6c411366b61bca4ea135c51d211a3",
      "transactionIndex": "0x30",
      "blockHash": "0x681249cb248e2a0ee4805f2cca4839bd28a9f2454a758d51bfd6b3280754257b",
      "blockNumber": "0x8e1dbf",
      "gasUsed": "0x22135",
      "effectiveGasPrice": "0x147175a",
      "from": "0xbfb3fd95879d2819256fee1ae754d14c9641d10a",
      "to": "0xe2462837fbd9f2392b2e10307f3cfd9475eb7873",
      "contractAddress": null
    }
  ],
  "libraries": [],
  "pending": [],
  "returns": {},
  "timestamp": 1759249780,
  "chain": 11155111,
  "commit": "ef0339b"
}